{
  "contractName": "HRProcess",
  "abi": [
    {
      "constant": true,
      "inputs": [],
      "name": "seekerCount",
      "outputs": [
        {
          "name": "",
          "type": "uint256"
        }
      ],
      "payable": false,
      "stateMutability": "view",
      "type": "function"
    },
    {
      "constant": true,
      "inputs": [
        {
          "name": "",
          "type": "address"
        }
      ],
      "name": "uploadedJobSeekers",
      "outputs": [
        {
          "name": "",
          "type": "bool"
        }
      ],
      "payable": false,
      "stateMutability": "view",
      "type": "function"
    },
    {
      "constant": true,
      "inputs": [
        {
          "name": "",
          "type": "uint256"
        }
      ],
      "name": "allJobSeekers",
      "outputs": [
        {
          "name": "id",
          "type": "uint256"
        },
        {
          "name": "emailID",
          "type": "string"
        },
        {
          "name": "firstName",
          "type": "string"
        },
        {
          "name": "lastName",
          "type": "string"
        },
        {
          "name": "phoneNumber",
          "type": "string"
        },
        {
          "name": "techSkills",
          "type": "string"
        },
        {
          "name": "cgpa",
          "type": "string"
        },
        {
          "name": "experience",
          "type": "string"
        }
      ],
      "payable": false,
      "stateMutability": "view",
      "type": "function"
    },
    {
      "inputs": [],
      "payable": false,
      "stateMutability": "nonpayable",
      "type": "constructor"
    },
    {
      "anonymous": false,
      "inputs": [
        {
          "indexed": true,
          "name": "_seekerId",
          "type": "uint256"
        }
      ],
      "name": "uploadedResume",
      "type": "event"
    },
    {
      "constant": false,
      "inputs": [
        {
          "name": "_email",
          "type": "string"
        },
        {
          "name": "_first",
          "type": "string"
        },
        {
          "name": "_second",
          "type": "string"
        },
        {
          "name": "_phone",
          "type": "string"
        },
        {
          "name": "_tech",
          "type": "string"
        },
        {
          "name": "_cgpa",
          "type": "string"
        },
        {
          "name": "_exp",
          "type": "string"
        }
      ],
      "name": "addSeeker",
      "outputs": [],
      "payable": false,
      "stateMutability": "nonpayable",
      "type": "function"
    },
    {
      "constant": false,
      "inputs": [
        {
          "name": "_seekerId",
          "type": "uint256"
        }
      ],
      "name": "upload",
      "outputs": [],
      "payable": false,
      "stateMutability": "nonpayable",
      "type": "function"
    }
  ],
  "bytecode": "0x60806040523480156200001157600080fd5b50620001a56040805190810160405280600581526020017f656d61696c0000000000000000000000000000000000000000000000000000008152506040805190810160405280600481526020017f6e616d65000000000000000000000000000000000000000000000000000000008152506040805190810160405280600281526020017f736e0000000000000000000000000000000000000000000000000000000000008152506040805190810160405280600a81526020017f31323334353637383930000000000000000000000000000000000000000000008152506040805190810160405280600581526020017f6e616461610000000000000000000000000000000000000000000000000000008152506040805190810160405280600281526020017f31300000000000000000000000000000000000000000000000000000000000008152506040805190810160405280600481526020017f6e616461000000000000000000000000000000000000000000000000000000008152506200033e640100000000026401000000009004565b620003386040805190810160405280600681526020017f656d61696c3200000000000000000000000000000000000000000000000000008152506040805190810160405280600581526020017f6e616d65320000000000000000000000000000000000000000000000000000008152506040805190810160405280600281526020017f736e0000000000000000000000000000000000000000000000000000000000008152506040805190810160405280600a81526020017f31323334353637383930000000000000000000000000000000000000000000008152506040805190810160405280600881526020017f6e616461613232320000000000000000000000000000000000000000000000008152506040805190810160405280600281526020017f31300000000000000000000000000000000000000000000000000000000000008152506040805190810160405280600481526020017f6e616461000000000000000000000000000000000000000000000000000000008152506200033e640100000000026401000000009004565b62000540565b60026000815480929190600101919050555061010060405190810160405280600254815260200188815260200187815260200186815260200185815260200184815260200183815260200182815250600160006002548152602001908152602001600020600082015181600001556020820151816001019080519060200190620003ca92919062000491565b506040820151816002019080519060200190620003e992919062000491565b5060608201518160030190805190602001906200040892919062000491565b5060808201518160040190805190602001906200042792919062000491565b5060a08201518160050190805190602001906200044692919062000491565b5060c08201518160060190805190602001906200046592919062000491565b5060e08201518160070190805190602001906200048492919062000491565b5090505050505050505050565b828054600181600116156101000203166002900490600052602060002090601f016020900481019282601f10620004d457805160ff191683800117855562000505565b8280016001018555821562000505579182015b8281111562000504578251825591602001919060010190620004e7565b5b50905062000514919062000518565b5090565b6200053d91905b80821115620005395760008160009055506001016200051f565b5090565b90565b610e0f80620005506000396000f30060806040526004361061006d576000357c0100000000000000000000000000000000000000000000000000000000900463ffffffff1680630f7680ac1461007257806312e7f6a11461009f5780638b22fd74146100ca5780639b8fc05014610125578063bc95d31e1461045a575b600080fd5b34801561007e57600080fd5b5061009d60048036038101908080359060200190929190505050610667565b005b3480156100ab57600080fd5b506100b4610763565b6040518082815260200191505060405180910390f35b3480156100d657600080fd5b5061010b600480360381019080803573ffffffffffffffffffffffffffffffffffffffff169060200190929190505050610769565b604051808215151515815260200191505060405180910390f35b34801561013157600080fd5b5061015060048036038101908080359060200190929190505050610789565b604051808981526020018060200180602001806020018060200180602001806020018060200188810388528f818151815260200191508051906020019080838360005b838110156101ae578082015181840152602081019050610193565b50505050905090810190601f1680156101db5780820380516001836020036101000a031916815260200191505b5088810387528e818151815260200191508051906020019080838360005b838110156102145780820151818401526020810190506101f9565b50505050905090810190601f1680156102415780820380516001836020036101000a031916815260200191505b5088810386528d818151815260200191508051906020019080838360005b8381101561027a57808201518184015260208101905061025f565b50505050905090810190601f1680156102a75780820380516001836020036101000a031916815260200191505b5088810385528c818151815260200191508051906020019080838360005b838110156102e05780820151818401526020810190506102c5565b50505050905090810190601f16801561030d5780820380516001836020036101000a031916815260200191505b5088810384528b818151815260200191508051906020019080838360005b8381101561034657808201518184015260208101905061032b565b50505050905090810190601f1680156103735780820380516001836020036101000a031916815260200191505b5088810383528a818151815260200191508051906020019080838360005b838110156103ac578082015181840152602081019050610391565b50505050905090810190601f1680156103d95780820380516001836020036101000a031916815260200191505b50888103825289818151815260200191508051906020019080838360005b838110156104125780820151818401526020810190506103f7565b50505050905090810190601f16801561043f5780820380516001836020036101000a031916815260200191505b509f5050505050505050505050505050505060405180910390f35b34801561046657600080fd5b50610665600480360381019080803590602001908201803590602001908080601f0160208091040260200160405190810160405280939291908181526020018383808284378201915050505050509192919290803590602001908201803590602001908080601f0160208091040260200160405190810160405280939291908181526020018383808284378201915050505050509192919290803590602001908201803590602001908080601f0160208091040260200160405190810160405280939291908181526020018383808284378201915050505050509192919290803590602001908201803590602001908080601f0160208091040260200160405190810160405280939291908181526020018383808284378201915050505050509192919290803590602001908201803590602001908080601f0160208091040260200160405190810160405280939291908181526020018383808284378201915050505050509192919290803590602001908201803590602001908080601f0160208091040260200160405190810160405280939291908181526020018383808284378201915050505050509192919290803590602001908201803590602001908080601f0160208091040260200160405190810160405280939291908181526020018383808284378201915050505050509192919290505050610bf9565b005b6000803373ffffffffffffffffffffffffffffffffffffffff1673ffffffffffffffffffffffffffffffffffffffff16815260200190815260200160002060009054906101000a900460ff161515156106bf57600080fd5b6000811180156106d157506002548111155b15156106dc57600080fd5b60016000803373ffffffffffffffffffffffffffffffffffffffff1673ffffffffffffffffffffffffffffffffffffffff16815260200190815260200160002060006101000a81548160ff021916908315150217905550807fc512e593534ef0e441dd8bfecd77b5e8e7a6431966fe801bf7f63a56433ec7f660405160405180910390a250565b60025481565b60006020528060005260406000206000915054906101000a900460ff1681565b6001602052806000526040600020600091509050806000015490806001018054600181600116156101000203166002900480601f01602080910402602001604051908101604052809291908181526020018280546001816001161561010002031660029004801561083b5780601f106108105761010080835404028352916020019161083b565b820191906000526020600020905b81548152906001019060200180831161081e57829003601f168201915b505050505090806002018054600181600116156101000203166002900480601f0160208091040260200160405190810160405280929190818152602001828054600181600116156101000203166002900480156108d95780601f106108ae576101008083540402835291602001916108d9565b820191906000526020600020905b8154815290600101906020018083116108bc57829003601f168201915b505050505090806003018054600181600116156101000203166002900480601f0160208091040260200160405190810160405280929190818152602001828054600181600116156101000203166002900480156109775780601f1061094c57610100808354040283529160200191610977565b820191906000526020600020905b81548152906001019060200180831161095a57829003601f168201915b505050505090806004018054600181600116156101000203166002900480601f016020809104026020016040519081016040528092919081815260200182805460018160011615610100020316600290048015610a155780601f106109ea57610100808354040283529160200191610a15565b820191906000526020600020905b8154815290600101906020018083116109f857829003601f168201915b505050505090806005018054600181600116156101000203166002900480601f016020809104026020016040519081016040528092919081815260200182805460018160011615610100020316600290048015610ab35780601f10610a8857610100808354040283529160200191610ab3565b820191906000526020600020905b815481529060010190602001808311610a9657829003601f168201915b505050505090806006018054600181600116156101000203166002900480601f016020809104026020016040519081016040528092919081815260200182805460018160011615610100020316600290048015610b515780601f10610b2657610100808354040283529160200191610b51565b820191906000526020600020905b815481529060010190602001808311610b3457829003601f168201915b505050505090806007018054600181600116156101000203166002900480601f016020809104026020016040519081016040528092919081815260200182805460018160011615610100020316600290048015610bef5780601f10610bc457610100808354040283529160200191610bef565b820191906000526020600020905b815481529060010190602001808311610bd257829003601f168201915b5050505050905088565b60026000815480929190600101919050555061010060405190810160405280600254815260200188815260200187815260200186815260200185815260200184815260200183815260200182815250600160006002548152602001908152602001600020600082015181600001556020820151816001019080519060200190610c83929190610d3e565b506040820151816002019080519060200190610ca0929190610d3e565b506060820151816003019080519060200190610cbd929190610d3e565b506080820151816004019080519060200190610cda929190610d3e565b5060a0820151816005019080519060200190610cf7929190610d3e565b5060c0820151816006019080519060200190610d14929190610d3e565b5060e0820151816007019080519060200190610d31929190610d3e565b5090505050505050505050565b828054600181600116156101000203166002900490600052602060002090601f016020900481019282601f10610d7f57805160ff1916838001178555610dad565b82800160010185558215610dad579182015b82811115610dac578251825591602001919060010190610d91565b5b509050610dba9190610dbe565b5090565b610de091905b80821115610ddc576000816000905550600101610dc4565b5090565b905600a165627a7a723058200cacb7f1fa56d4b187b595c4e61a615fcd32db23b2db30800e4c31fd12d0bffe0029",
  "source": "pragma solidity >=0.4.21 <0.6.0;\r\n\r\ncontract HRProcess{\r\n    struct User {\r\n        uint id;\r\n        string emailID;\r\n        string firstName;\r\n        string lastName;\r\n        string phoneNumber;\r\n        string techSkills;\r\n        string cgpa;\r\n        string experience;\r\n    }\r\n\r\n    mapping(address => bool) public uploadedJobSeekers;\r\n\r\n    mapping(uint => User) public allJobSeekers;\r\n\r\n    uint public seekerCount;\r\n\r\n    event uploadedResume(\r\n        uint indexed _seekerId\r\n    );\r\n\r\n    constructor() public{\r\n        addSeeker(\"email\",\"name\",\"sn\",\"1234567890\",\"nadaa\",\"10\",\"nada\");\r\n        addSeeker(\"email2\",\"name2\",\"sn\",\"1234567890\",\"nadaa222\",\"10\",\"nada\");\r\n    }\r\n\r\n    function addSeeker(string memory _email,string memory _first,string memory _second,string memory _phone,string memory _tech,string memory _cgpa,string memory _exp) public{\r\n        seekerCount++;\r\n        allJobSeekers[seekerCount]=User(seekerCount,_email,_first,_second,_phone,_tech,_cgpa,_exp);\r\n    }\r\n\r\n    function upload(uint _seekerId) public {\r\n        require(!uploadedJobSeekers[msg.sender]);\r\n\r\n        require(_seekerId > 0 && _seekerId <= seekerCount);\r\n\r\n        uploadedJobSeekers[msg.sender] = true;\r\n\r\n        emit uploadedResume(_seekerId);\r\n\r\n    }\r\n}\r\n  ",
  "sourcePath": "C:/Users/LIMOS/Documents/election-2019_update/contracts/HRProcess.sol",
  "compiler": {
    "name": "solc",
    "version": "0.4.25+commit.59dbf8f1.Emscripten.clang"
  },
  "schemaVersion": "3.0.16",
  "updatedAt": "2019-09-21T08:27:31.147Z",
  "devdoc": {
    "methods": {}
  },
  "userdoc": {
    "methods": {}
  }
}